:100000000C9438010C9460010C9460010C94600114
:100010000C9460010C9460010C9460010C946001DC
:100020000C9460010C9460010C9460010C9487089E
:100030000C94820A0C9460010C9460010C94600191
:100040000C94AD110C9460010C94F2120C946001AC
:100050000C9460010C9460010C9460010C9460019C
:100060000C9460010C94600153616D706C6520729A
:1000700061746520746F6F206869676821004D6F37
:100080007265207468616E20313620626974732055
:100090007065722073616D706C6521004E6F742005
:1000A0006D6F6E6F2F73746572656F2100436F6D96
:1000B0007072657373696F6E206E6F7420737570E4
:1000C000706F7274656400436F6D707265737369ED
:1000D0006F6E206E6F7420737570706F72746564CC
:1000E000004E6F7420612076616C69642057415620
:1000F00000436F756C646E2774206F70656E2066A8
:10010000696C652000204E6F7420612076616C69F7
:1001100064205741560000506C6179696E67200079
:1001200066696C652E6F70656E206661696C6564CA
:10013000000020002F002E002C20000A0D53442028
:10014000492F4F206572726F723A20002000002301
:1001500000233000436F6D6D616E64206973204130
:100160000046696C657320466F756E643A00636F74
:100170006D6D616E642077617320536574204164F6
:100180006472657373000020000043616E27742061
:100190006F70656E20726F6F742064697221002C1D
:1001A0002074797065206973204641540055736945
:1001B0006E6720706172746974696F6E20004E6F93
:1001C0002076616C696420464154207061727469C4
:1001D00074696F6E21004361726420696E69742EC8
:1001E000206661696C6564210041646472657373A3
:1001F0003A2000467265652052414D3A200057650D
:100200006C636F6D6520746F204D79204272616957
:100210006E0000000000240027002A0000000000FB
:10022000250028002B0000000000230026002900E4
:10023000040404040404040402020202020203038C
:100240000303030301020408102040800102040894
:100250001020010204081020000000070002010025
:10026000000304060000000000000000CB0B771420
:1002700011241FBECFEFD8E0DEBFCDBF11E0A0E05C
:10028000B1E0E8E4FDE202C005900D92AC33B107A5
:10029000D9F714E0ACE3B1E001C01D92A53AB10773
:1002A000E1F712E0C0E7D2E004C02297FE010E940D
:1002B0009616CC36D107C9F70E94A6110C94A21647
:1002C0000C940000FC0188279927E89421912032A2
:1002D000E9F3293010F02E30C8F32B3241F02D32E3
:1002E00039F4689404C00E94AA01820F911D2191E3
:1002F00020532A30C0F31EF4909581959F4F0895A6
:10030000FB01DC018D9181341CF08B350CF4805E97
:10031000619161341CF06B350CF4605E861B6111D9
:1003200089F3990B0895FB01DC018D9101908019EF
:100330000110D9F3990B0895FB01DC0141505040A5
:1003400030F08D910190801919F40020B9F7881BC5
:10035000990B08957AE0979F902D879F802D910D9E
:1003600011240895F999FECF72BD61BDF89A80B548
:100370000895F999FECF1FBA72BD61BD40BD0FB699
:10038000F894FA9AF99A0FBE0895CF93DF93EB0190
:10039000DC0190E020E03EE28C91803269F0283070
:1003A00029F4FE01E90FF11D30839F5FFE01E90F83
:1003B000F11D8C9180839F5F2F5F11962B3061F729
:1003C000C90FD11D1882DF91CF910895FC01858559
:1003D0009685A785B08985839683A783B087118684
:1003E00012861386148608952F923F924F925F9241
:1003F0006F927F928F929F92AF92BF92CF92DF9235
:10040000EF92FF920F931F93DF93CF93CDB7DEB799
:10041000A5970FB6F894DEBF0FBECDBF2C01FC012F
:10042000748B638B442321F46624772443013AC000
:10043000453008F007C1242F30E0A4E0220F331F1D
:10044000AA95E1F722553E4FCB0140E050E060E035
:1004500070E04E010894811C911C8401F0E1EF2EA4
:10046000F12C0E94F406882309F4ECC0898190E005
:100470008F779070892B09F0E5C0F401848595850C
:10048000A685B78584369105A105B10508F4DAC0C3
:100490006084718482849384611471048104910462
:1004A00009F4D0C0F20183899489B401A3012BE03F
:1004B00030E01E010894211C311C8101E5E2EE2E82
:1004C000F12C0E94F406882309F4BCC089819A812A
:1004D0008050924009F0B6C0F1015581552309F4CE
:1004E000B1C083819481892B09F4ACC0428144233B
:1004F00009F4A8C0242F30E0C90101978223932377
:10050000892B09F09FC0F20155874083F1012385B3
:1005100034852115310519F040E050E005C0F101A6
:10052000218D328D438D548DF2012183328343839B
:100530005483F101E680F780F201F68AE58AF10141
:10054000A380B480CC24DD24A60CB71CC81CD91C05
:10055000F201A686B786C08AD18AF101658170E072
:1005600080E090E00E9411166A0D7B1D8C1D9D1D80
:10057000F201678B708F818F928F35E0EE0CFF1C3C
:100580003A95E1F72FEF31E0E20EF31EEF2CFF2456
:10059000E69400E010E06E0D7F1D801F911F6187C3
:1005A000728783879487F10180859185009721F078
:1005B0009C0140E050E005C0F1012589368947895A
:1005C000508DF201238F348F458F568F8185928510
:1005D000A385B485681A790A8A0A9B0A620E731E7B
:1005E000841E951EF101228130E040E050E0C401FC
:1005F000B3010E944316C901DA01F2018583968393
:10060000A783B087853FFFE09F07F0E0AF07F0E0EA
:10061000BF0710F48CE006C0855F9F4FA040B0403C
:1006200028F480E1F201828B81E00DC0F10181A10B
:1006300092A1A3A1B4A1F201878B908FA18FB28F59
:1006400080E2F1CF80E0A5960FB6F894DEBF0FBE32
:10065000CDBFCF91DF911F910F91FF90EF90DF9071
:10066000CF90BF90AF909F908F907F906F905F9052
:100670004F903F902F9008952F923F924F925F920C
:100680006F927F928F929F92AF92BF92CF92DF92A2
:10069000EF92FF920F931F93CF93DF933C011B01C7
:1006A000DC011996AD90BD90CD90DC901C97F501C2
:1006B0001FEF412E11E0512E4A205B2060E072E0D6
:1006C000641975094A016417750708F44B01D301D1
:1006D0001196ED90FD900D911C911497940140E0BE
:1006E00050E0D801C7018A199B09AC09BD098217DE
:1006F0009307A407B50718F447018E1A9F0AF30160
:100700008081B9E0D694C794B794A794BA95D1F7ED
:10071000C189D289823049F44F89588D698D7A8D8B
:100720004A0D5B1D6C1D7D1D2CC0E8806E2D70E098
:1007300080E090E0D30115962D913D914D915C9113
:10074000189722503040404050400E941116AB0193
:10075000BC0189859A85AB85BC85480F591F6A1FE6
:100760007B1FFF240894E108F1080027F7FC00959F
:10077000102FEA20FB200C211D214E0D5F1D601F54
:10078000711FD3015196ED91FC9152978389948901
:100790009201810174010E94F406882319F42FEF5D
:1007A0003FEF01C09401C901DF91CF911F910F91DB
:1007B000FF90EF90DF90CF90BF90AF909F908F9081
:1007C0007F906F905F904F903F902F900895EF92A1
:1007D000FF920F931F93DF93CF9300D000D000D0F0
:1007E000CDB7DEB7FC018A019B014230510561059E
:1007F000710508F45AC085819681A781B08502965B
:10080000A11DB11D481759076A077B0708F04DC0A5
:100810008289803231F5B7E076956795579547958F
:10082000BA95D1F786859785A089B189480F591F58
:100830006A1F7B1F9801220F331F220F331F317055
:10084000838994898E010D5F1F4FE4E0EE2EF12C19
:100850000E94F406882349F12B813C814D815E8101
:1008600028C0803111F5452F562F672F77278685B1
:100870009785A089B189480F591F6A1F7B1F98016E
:10088000220F331F3170838994898E010F5F1F4FB0
:10089000E2E0EE2EF12C0E94F406882331F08981EB
:1008A0009A819C0140E050E004C020E030E040E04C
:1008B00050E0B901CA0126960FB6F894DEBF0FBE0C
:1008C000CDBFCF91DF911F910F91FF90EF900895D1
:1008D000AF92BF92CF92DF92EF92FF920F931F934E
:1008E000CF93DF936C01EE24FF24870110C0F60143
:1008F00080815E01880FB82EE501C0E0CE01AA27F5
:1009000097FDA095BA2FE80EF91E0A1F1B1FC601FE
:100910000E94E703AB01BC0141155105610571055A
:1009200031F7B701C801DF91CF911F910F91FF906F
:10093000EF90DF90CF90BF90AF9008950F931F93EB
:10094000CF93DF93EC018B01FB0182898031B1F4FD
:1009500082E088831D861E861F86188A858996896F
:10096000A0E0B0E025E0880F991FAA1FBB1F2A95C1
:10097000D1F789839A83AB83BC8316C0803211F090
:1009800080E021C083E08883FB014789508D618D21
:10099000728D4D875E876F87788BC8010E946804CF
:1009A00069837A838B839C831A8B098B8D859E85C3
:1009B000AF85B8898D839E83AF83B88719861A86E1
:1009C0001B861C8681E0DF91CF911F910F910895C6
:1009D0000F931F93CF93DF93EC018B01FA01DB019F
:1009E00052968C91803108F446C08081882309F4A6
:1009F00042C0853E09F43FC084899589A0E0B0E0FB
:100A0000BC0155274427828D938DA0E0B0E0480FAC
:100A1000591F6A1F7B1F4D875E876F87788B838581
:100A200090E088719070009759F481E08883848DFC
:100A3000958DA68DB78D89839A83AB83BC830BC0BC
:100A40004097C9F484E08883C8010E9468046983E0
:100A50007A838B839C831A8B098B8D859E85AF85CA
:100A6000B8898D839E83AF83B88719861A861B86C3
:100A70001C8681E001C080E0DF91CF911F910F9132
:100A800008956F927F928F929F92AF92BF92CF9272
:100A9000DF92EF92FF920F931F93CF93DF93EC01BE
:100AA00069847A848B849C84460D571D681D791D4A
:100AB00089819A81AB81BC8184179507A607B70706
:100AC00008F44BC0E989FA89E08049875A876B8727
:100AD0007C878881823009F442C0FF2400E010E066
:100AE000E9E07695679557954795EA95D1F7CB015B
:100AF000BA01A80197010E94431659016A0149E011
:100B000096948794779467944A95D1F7C401B3017A
:100B1000A80197010E944316A21AB30AC40AD50A73
:100B200016C04D815E816F81788589899A890E947E
:100B3000E7036D837E838F8398870894A108B108AB
:100B4000C108D108611571058105910531F0A11425
:100B5000B104C104D10429F702C080E001C081E0E2
:100B6000DF91CF911F910F91FF90EF90DF90CF9089
:100B7000BF90AF909F908F907F906F900895AF92AD
:100B8000BF92CF92DF92EF92FF920F931F93CF937A
:100B9000DF935C017B016A0100E010E004C0EC0E11
:100BA000FD1E0C0F1D1F0C151D05D8F4A601401BC2
:100BB000510BC501B7010E943C03EC011816190640
:100BC0001CF097FF0EC00AC0AC01662757FD609568
:100BD000762FC5010E944105882309F72FEF3FEFCB
:100BE00001C09801C901DF91CF911F910F91FF9032
:100BF000EF90DF90CF90BF90AF900895EF92FF926B
:100C00000F931F93CF93DF938C01EB01FC01808145
:100C1000823010F42FEF1CC07B0108C08B8590E060
:100C2000887190700097A1F0409791F0C801B701CA
:100C300040E250E00E94BF05282F803231F48881C5
:100C4000882329F0853E91F3E9CF18160CF420E0B3
:100C5000822FDF91CF911F910F91FF90EF90089518
:100C60008F929F92AF92BF92CF92DF92EF92FF92BC
:100C70000F931F93DF93CF93CDB7DEB7AD970FB62A
:100C8000F894DEBF0FBECDBF4C018B016A01FB01A2
:100C900085859685A785B08985839683A783B08748
:100CA0001186128613861486FEE0EF2EF12CEC0ED0
:100CB000FD1E5E010894A11CB11C12C0C701B50144
:100CC0000E94C501C501B6010E948001892B41F433
:100CD000F80161897289C401A7010E94E80407C074
:100CE000C801B7010E94FE05181644F380E0AD96D6
:100CF0000FB6F894DEBF0FBECDBFCF91DF911F912D
:100D00000F91FF90EF90DF90CF90BF90AF909F90AA
:100D10008F900895CF93DF93EC018E818823D9F0D3
:100D20008FEF8EBD2F8138854FEF04C00DB407FEC5
:100D3000FDCF4EBD2F5F3F4FC901019781509240BB
:100D4000A8F338872F830DB407FEFDCF8AE061E05A
:100D50000E94A5121E82DF91CF910895CF92DF925B
:100D6000EF92FF920F931F93162F69017A010E9451
:100D70008A068AE060E00E94A5128FEF8EBD0DB456
:100D800007FEFDCF8EB510641EBD0DB407FEFDCF6E
:100D900028E130E0D701C601022E04C0B695A79520
:100DA000979587950A94D2F78EBD0DB407FEFDCFB7
:100DB000285030408FEF283F380761F70EBD0DB443
:100DC00007FEFDCF90E02FEF2EBD0DB407FEFDCF47
:100DD0008EB58F3F11F49150B9F71F910F91FF908D
:100DE000EF90DF90CF9008956F927F928F929F92B5
:100DF000AF92BF92CF92DF92EF92FF920F931F9329
:100E0000CF93DF93EC015A016B0149013801E114E2
:100E1000F10409F487C0C701820F931F81509240EB
:100E200008F040C08E81882371F088819981AA8161
:100E3000BB81481759076A077B0729F48F8198857A
:100E400088169906A8F5A882B982CA82DB828B85AA
:100E5000833039F089E0AA0CBB1CCC1CDD1C8A95C0
:100E6000D1F7CE0161E1A60195010FEF0E94AE0618
:100E7000882319F083E08C8315C080E090E03FEF79
:100E80003EBD0DB407FEFDCF2EB52F3F31F447E236
:100E90008031940721F00196F3CF2E3F29F080E1B5
:100EA0008C832D8380E03FC018861F8281E08E8373
:100EB0008FEF8EBD8F8198852FEF05C00DB407FE93
:100EC000FDCF2EBD019688159905C0F398878F83B5
:100ED000D701119720E030E09FEF0BC00DB407FE63
:100EE000FDCF8EB5F301E20FF31F80839EBD2F5F10
:100EF0003F4F2A173B0790F30DB407FEFDCF8EB589
:100F0000A60DB71D8C932F8138852E0D3F1D388778
:100F10002F838985882319F02050324018F0CE01A4
:100F20000E948A0681E0DF91CF911F910F91FF907F
:100F3000EF90DF90CF90BF90AF909F908F907F9079
:100F40006F900895BF92CF92DF92EF92FF920F932E
:100F50001F93DF93CF9300D000D0CDB7DEB77C01D5
:100F6000B62E8AE061E00E9485128AE061E00E946C
:100F7000A5128BE061E00E9485128DE061E00E9485
:100F8000851283E58CBD80E09FEF9EBD0DB407FE0A
:100F9000FDCF8F5F8A30C9F760E00E94A51280E024
:100FA00090E02FEF2EBD0DB407FEFDCF3EB50196AC
:100FB00032E081309307B1F7C70160E020E030E014
:100FC00040E050E005E90E94AE06182F80E090E076
:100FD0002FEF09C0019711F481E062C02EBD0DB45E
:100FE00007FEFDCF1EB51130A9F7C70168E02AEA58
:100FF00031E040E050E007E80E94AE06982F8130D3
:1010000071F480E09FEF9EBD0DB407FEFDCF2EB5BD
:101010008F5F8430C1F782E0F701838704C082FFCD
:1010200005C0F7011387CC24DD2406C082E0F70158
:101030008483958380E05DC0C70167E320E030E0F2
:1010400040E050E00FEF0E94AE06F701838582304A
:1010500029F020E030E040E050E004C020E030E043
:1010600040E050E4C70169E20FEF0E94AE0688231A
:1010700059F0F8EECF16F3E0DF0611F486E010C069
:101080000894C11CD11CD8CFC7016AE320E030E02E
:1010900040E050E00FEF0E94AE06882321F085E08B
:1010A000F7018483C7CFFE0131969FEF9E012B5F2E
:1010B0003F4F9EBD0DB407FEFDCF8EB58193E21765
:1010C000F307B9F7F7018385823031F48981807C99
:1010D000803C11F483E083878CB58C7F8CBDBB2072
:1010E00019F48DB581608DBD8AE061E00E94A51282
:1010F00081E00F900F900F900F90CF91DF911F9193
:101100000F91FF90EF90DF90CF90BF9008951F92C6
:101110000F920FB60F9211242F933F934F938F93FB
:101120009F93AF93BF93EF93FF93E0913D01F091B5
:101130003E01309709F4A8C0209143033091440345
:1011400080914503909146032817390709F047C05D
:10115000809148038823B9F180913F039091400327
:101160002FE332E041E08F33940749F4309340039A
:1011700020933F0390934203809341030AC08FE37F
:1011800091E09093400380933F0330934203209378
:10119000410380913F0390914003909344038093D7
:1011A000430380509F4F90934603809345031092D2
:1011B000480380914703882391F480916F008460F5
:1011C00080936F000CC083859485A585B6850196B4
:1011D000A11DB11D83879487A587B68755C05A98EE
:1011E0005C985B9A5B985C9A5B9A5B985B9A5B985D
:1011F0005B9A5B988581803119F5E0914303F0910A
:1012000044038181805890E087FF02C05C9A01C04E
:101210005C985B9A5B989F5F983011F0880FF4CFD1
:10122000908180E097FF02C05C9A01C05C985B9A55
:101230005B988F5F843011F0990FF4CF32961DC008
:101240008830F9F4E0914303F0914403908180E009
:1012500097FF02C05C9A01C05C985B9A5B988F5FB5
:10126000883011F0990FF4CF5B9A5B985B9A5B988A
:101270005B9A5B985B9A5B983196F0934403E0939A
:1012800043035A9A5D985D9AFF91EF91BF91AF9198
:101290009F918F914F913F912F910F900FBE0F9083
:1012A0001F9018950895EFE6F0E080818D7F808390
:1012B000E0913D01F0913E01128610923E011092A4
:1012C0003D0108958F929F92AF92BF92CF92DF928D
:1012D000EF92FF920F931F93DF93CF9300D000D034
:1012E0000F92CDB7DEB77C015B01942E852EFC01F9
:1012F00086819781A085B1850097A105B10599F5F3
:1013000087010A5F1F4F6E010894C11CD11CF701B1
:1013100087859089B60144E050E00E94BF0504979C
:1013200009F055C01D82F70187859089B80144E016
:1013300050E00E94BF05049709F049C0C60160E073
:1013400071E044E050E00E949C01009761F0F701D9
:101350004681578160857185878590890E94410506
:101360008823A9F634C0892D982D9C018901F2E0CB
:1013700021303F0710F000E012E0F70126813781AD
:1013800040855185C801A0E0B0E0281739074A0719
:101390005B0708F48901F70187859089B501A801E9
:1013A0000E94BF05BC018017910799F4980140E0A5
:1013B00050E0F70186819781A085B185821B930B50
:1013C000A40BB50B86839783A087B18702C060E02A
:1013D00070E0CB010F900F900F900F900F90CF9176
:1013E000DF911F910F91FF90EF90DF90CF90BF9012
:1013F000AF909F908F900895BF92CF92DF92EF921F
:10140000FF920F931F93CF93DF93EC01C980DA8093
:10141000EB80FC80B88090933E0180933D010FE308
:1014200011E01093440300934303B80142E050E0FD
:101430000E946209181619060CF05AC080914303E5
:101440009091440302969093460380934503EF8561
:10145000F889818540E051E0481B510980913D01A8
:1014600090913E01B8016E5F7F4F0E9462099C011E
:1014700018161906ECF58091450390914603820FEA
:10148000931F909346038093450380913D01909173
:101490003E016FE372E040E051E00E94620981E0AA
:1014A000809348038A871092800089E080938100AE
:1014B0006B2D70E080E090E0A70196010E9411166C
:1014C0009B01AC0160E074E284EF90E00E9443165F
:1014D000309389002093880081E090E090938B0006
:1014E00080938A0080916F00826080936F0078946F
:1014F000DF91CF911F910F91FF90EF90DF90CF90F0
:10150000BF9008951F920F920FB60F9211242F9340
:101510003F934F935F936F937F938F939F93AF937B
:10152000BF93EF93FF9380916F008B7F80936F0049
:1015300080914803882339F581E0809347037894AC
:10154000609141037091420380913D0190913E0171
:1015500040E051E00E946209892B71F480916F0094
:101560008D7F80936F00E0913D01F0913E011286E6
:1015700010923E0110923D01F8941092470381E0D1
:10158000809348037894FF91EF91BF91AF919F9121
:101590008F917F916F915F914F913F912F910F901C
:1015A0000FBE0F901F901895AF92BF92CF92DF920F
:1015B000EF92FF920F931F93DF93CF93CDB7DEB7D8
:1015C00062970FB6F894DEBF0FBECDBF7C015B0102
:1015D0006E010894C11CD11CCB01B6014CE050E057
:1015E0000E94BF050C9709F06EC0C60165E071E06E
:1015F00044E050E00E949C01009709F064C0CE01D5
:1016000009966AE071E044E050E00E949C01009776
:1016100009F059C06AC0C6016FE071E044E050E0D3
:101620000E949C01009709F04EC068C0023111056C
:1016300019F087EC90E045C0C501B601A8010E94F1
:10164000BF058017910709F03EC089819A810197F3
:1016500039F40231110539F489899A89892B19F0F5
:101660008DEA90E02EC03B81F7013083333018F0D3
:101670008CE990E026C08D819E81AF81B885F7010D
:1016800081839283A383B4832F852583213118F02E
:101690008EE790E016C08332F6E59F07F0E0AF07D3
:1016A000F0E0BF0718F0293050F407C081589E437E
:1016B000A040B04050F1293040F1323030F188E69E
:1016C00090E00E94A80B80E062960FB6F894DEBF0F
:1016D0000FBECDBFCF91DF911F910F91FF90EF9083
:1016E000DF90CF90BF90AF900895C501B60148E05C
:1016F00050E00E94BF05089731F78DCF0D811E8104
:101700000031110509F092CF97CFF70116821782A9
:1017100010861186B08AA7861386148615861686CB
:10172000128681E0D1CF1F93CF93DF93EC0110E0BD
:1017300005C08EE894E00E94E8141F5FFE01E10FEF
:10174000F11D64916623A9F7DF91CF911F91089550
:101750000E94930B8EE894E00E94F8140895DF93A2
:10176000CF9300D0CDB7DEB72091A1043091A20471
:10177000CE0101962115310519F4855A944002C015
:10178000821B930B9A83898389819A810F900F9092
:10179000CF91DF91089510929503109297031092C4
:1017A0009A0310929C031092AF031092BC0380EF37
:1017B00093E00E9452090895EF92FF920F931F93B6
:1017C000DF93CF93CDB7DEB763970FB6F894DEBF44
:1017D0000FBECDBF8C0119828091FA03882321F0BE
:1017E00080EF93E00E9453097E010894E11CF11CF4
:1017F000C7016CEB73E0A8010E943006882351F406
:1018000081EF90E00E94930B8EE894E0B8010E9473
:10181000F01414C080EF93E0B7010E94D40A88232B
:1018200029F481EE90E00E94A80B08C080EF93E0BD
:101830000E94FC098091FA038823E1F763960FB6B2
:10184000F894DEBF0FBECDBFCF91DF911F910F91F6
:10185000FF90EF900895EF92FF921F93CF93DF9345
:101860007C01EC0110E08881803259F0183021F4BD
:1018700086E391E00E94930B8EE894E068810E94D9
:10188000E8141F5F21961B3071F7F701838588717B
:10189000803121F484E391E00E94930BDF91CF919A
:1018A0001F91FF90EF9008951F93182F80915E0372
:1018B00090915F030A971CF481E591E002C08FE4E8
:1018C00091E00E94930B40915E0350915F03662765
:1018D00057FD6095762F8EE894E02AE030E00E9474
:1018E000F115113019F0123051F405C08EE491E079
:1018F0000E94A80B04C08CE491E00E94930B1F91FE
:101900000895809195038823F9F08BE391E00E947C
:10191000930B4091950350E060E070E08EE894E016
:1019200020E130E00E94F11588E391E00E94930BE2
:101930004091960350E060E070E08EE894E020E192
:1019400030E00E940616FFCF0895EF92FF920F93AA
:101950001F93DF93CF93CDB7DEB763970FB6F8949D
:10196000DEBF0FBECDBF7C0119828E010F5F1F4FFE
:1019700042C08091D0038E32F1F1C8016DE973E06D
:1019800040ED53E00E94E804882329F480E291E0CE
:101990000E94A80BFFCF8981823020F0C8010E94ED
:1019A000A50C29C087E191E00E94930B80ED93E0A4
:1019B0000E942B0C86E191E00E94A80B80EF93E03F
:1019C000B8010E94D40A882329F485E091E00E949E
:1019D000930B11C080EF93E00E94FC0906C064E6FF
:1019E00070E080E090E00E94F5118091FA03882376
:1019F000B1F70E94810CC70160ED73E00E94FE0503
:101A000018160CF4B6CF63960FB6F894DEBF0FBE6F
:101A1000CDBFCF91DF911F910F91FF90EF9008956F
:101A2000CF92DF92EF92FF921F93DF93CF93CDB7C8
:101A3000DEB763970FB6F894DEBF0FBECDBF7C0153
:101A40006E010894C11CD11C33C08091D0038E322A
:101A500079F110E005C082E391E00E94930B1F5FD3
:101A60008091CF031817B8F380ED93E00E942B0C00
:101A700081E391E00E94A80B8091DB0388718031A3
:101A8000B9F419828091CF038E5F8093CF03C60192
:101A90006DE973E040ED53E00E94E804882319F0FB
:101AA000C6010E94100D8091CF0382508093CF0316
:101AB000C70160ED73E00E94FE05181634F2C701FD
:101AC0000E94E6010E94810C63960FB6F894DEBF77
:101AD0000FBECDBFCF91DF911F91FF90EF90DF90B0
:101AE000CF900895FF920F931F93CF93DF93F82E1B
:101AF0008FE061E00E9485128EE061E00E94851215
:101B000080E161E00E9485128EE060E00E94A512F3
:101B10008FE060E00E94A51280E160E00E94A512C3
:101B2000C7E0D0E001E010E08FE060E00E94A51285
:101B3000C8010C2E02C0880F991F0A94E2F76F2D7E
:101B400068238EE00E94A51282E390E00E941F129B
:101B50008FE061E00E94A51282E390E00E941F12D4
:101B60008EE060E00E94A51221978FEFCF3FD8074B
:101B7000D9F68FE060E00E94A51280E161E00E944A
:101B8000A51282E390E00E941F1280E160E00E94B3
:101B9000A512DF91CF911F910F91FF900895AF9201
:101BA000BF92CF92DF92EF92FF920F931F93DF933A
:101BB000CF93CDB7DEB764970FB6F894DEBF0FBEF4
:101BC000CDBFFE01319684E1DF011D928A95E9F7D0
:101BD000CC24DD248F0115C06AE070E080E090E045
:101BE0000E94F5118EE894E00E943C14F801EC0D7F
:101BF000FD1D8083803229F0803419F00894C11CC7
:101C0000D11C8EE894E00E942814882329F789814A
:101C1000882309F44BC08EE894E08E010F5F1F4FBC
:101C2000B8010E940F158981809349038A818093AE
:101C30004A0310924B038B81992787FD90950E9450
:101C40009A1680934C038C81992787FD90950E946A
:101C50009A1680934D0310924E039FE4A92E93E0B1
:101C6000B92E84E0E82EF12C0FC0F801EE0DFF1D17
:101C70008081992787FD90950E949A16F50181939E
:101C80005F010894E11CF11CCE14DF0474F789E4B1
:101C900093E0C80ED91ED60113961C928FE493E0F0
:101CA0000E94620190935D0380935C0364960FB67B
:101CB000F894DEBF0FBECDBFCF91DF911F910F9182
:101CC000FF90EF90DF90CF90BF90AF900895AF92CC
:101CD000BF92CF92DF92EF92FF920F931F93CF9319
:101CE000DF937C010E94620120915E0330915F03CB
:101CF0008217930751F0D7018C918A3209F041C2C3
:101D000011968C918A3209F03CC203E0C02ED12C8E
:101D1000CE0CDF1CC60164E171E00E9493010097C4
:101D200049F5F701438954894930510518F58681F1
:101D30008A3211F48FEF0CC04150504021E030E066
:101D400002C0220F331F4A95E2F780918003822B55
:101D5000809380030E94720D82E00E94540C409197
:101D6000800350E060E070E08EE894E022E030E034
:101D70000E940616C60167E171E00E949301009778
:101D800079F5D70153962D913C915497293031051F
:101D9000C8F416968C918A3221F41092800380E068
:101DA0000FC02150304081E090E002C0880F991FA1
:101DB0002A95E2F780952091800382238093800307
:101DC0000E94720D82E00E94540C4091800350E00A
:101DD00060E070E08EE894E022E030E00E940616B9
:101DE000C6016AE171E00E949301009709F5F701CD
:101DF00086818A3211F48FEF09C0D70153968D91F5
:101E00009C9154978F3F910509F020F480938003B3
:101E10000E94720D82E00E94540C4091800350E0B9
:101E200060E070E08EE894E022E030E00E94061668
:101E3000C6016DE171E00E949301009791F58091D8
:101E400080030E94720D82E00E94540CD7015396C9
:101E5000ED91FC915497319740918003E830F10562
:101E6000B8F421E030E002C0220F331FEA95E2F718
:101E700060E070E0842F90E08223932328173907D5
:101E800011F461E070E08EE894E00E94E11509C071
:101E900050E060E070E08EE894E022E030E00E94E4
:101EA0000616C60160E271E00E9493010097D9F521
:101EB00082E00E94540CC0E0D0E011E0A12EB12CD1
:101EC00017C08E010F5F1F4F8EE894E0B8010E948B
:101ED000D915C50102C0880F991FCA95E2F70E9463
:101EE000720D68EE73E080E090E00E94F511E80169
:101EF000C830D10534F389E891E00E94A80B0E9414
:101F0000CF0DC60160E271E00E949301009739F4A1
:101F1000F70186818A3219F400E010E0E8CF809161
:101F200080030E94720DC60163E271E00E9493017A
:101F3000009709F09DC082E00E94540CD7011696CC
:101F40008C918A32E9F500E613E0C0E0D0E0BE01F2
:101F50006170707082E10E94A512BE01769567954E
:101F6000617087E00E94A512BE017695679576950F
:101F70006795617088E00E94A512BE01F3E0769536
:101F80006795FA95E1F7617083E10E94A5128EE0F2
:101F90000E946712BC01F801819391938F018EE832
:101FA00094E00E94D91587E891E00E94930B219656
:101FB000C031D10561F686E891E00E94A80B58C0B7
:101FC000D70153966D917C91549761507040603168
:101FD000710508F04DC06170707082E10E94A51219
:101FE000F7016389748961507040769567956170D7
:101FF00087E00E94A512D70153966D917C9154976A
:10200000615070407695679576956795617088E028
:102010000E94A512F701638974896150704043E002
:10202000769567954A95E1F7617083E10E94A51264
:10203000D70153960D911C915497015010408EE09A
:102040000E946712000F111F005A1C4FF801918364
:102050008083D7015396ED91FC915497EE0FFF1FAB
:10206000E25AFC4F608171818EE894E00E94E11594
:10207000C60166E271E00E9493010097B9F48EE612
:1020800091E00E94A80BF701438954894436510519
:1020900050F450935F0340935E038CE391E060E063
:1020A00070E00E94B90181E00E94540CC60169E20F
:1020B00071E00E9493010097A9F4D70116968C91C4
:1020C0008A3229F48CEB93E00E94A50C04C0C7016E
:1020D00006960E94DC0B8CEB93E00E94E60182E006
:1020E0000E94540CC6016CE271E00E9493010097BB
:1020F00059F482E00E94540C81E691E00E94A80B02
:102100008CEB93E00E94100DF70183818134C9F5B7
:1021100084E591E00E94930BD7011496EC911497FB
:10212000FF27E7FDF095EF5AFC4F53968C9153979C
:10213000808314966C91772767FD7095605370408B
:102140008EE894E00E94E115C1E8D3E0488150E0B8
:1021500060E070E08EE894E022E030E00E94061635
:1021600089910E94720D64EF71E080E090E00E941E
:10217000F511B3E0CB38DB0749F780918A038093F0
:102180008003DF91CF911F910F91FF90EF90DF902F
:10219000CF90BF90AF9008950E94CF0D80912F01F6
:1021A000909130010E94670E10924C0310924D03E3
:1021B0001092490310924A0310925D0310925C033F
:1021C00008951F938EE894E040E855E260E070E0E7
:1021D0000E942F1361E070E080E090E00E94F51112
:1021E0008EEF91E00E94A80B83EF91E00E94930B89
:1021F0000E94AF0BBC018EE894E00E94E1158EE0D6
:1022000061E00E94851280E161E00E9485128FE00A
:1022100061E00E9485128FE060E00E94A51280E1DB
:1022200060E00E94A51280E00E94720D82E161E0F0
:102230000E94851287E061E00E94851288E061E0DB
:102240000E94851283E161E00E9485128EE060E0C9
:102250000E9485128CE391E060E070E00E94B20180
:1022600080935E0310925F0389EE91E00E94930BCE
:1022700081E00E94540C82E061E00E94851283E0BC
:1022800061E00E94851284E061E00E94851285E091
:1022900061E00E94851281E993E060E00E94A2075C
:1022A000882339F486ED91E00E94A80B0E94810CEE
:1022B000FFCF81E993E00E948A0681E080939A0330
:1022C00010E08DE993E061E973E0412F0E94F40191
:1022D000882351F41F5F1530A1F78EEB91E00E9427
:1022E000A80B0E94810CFFCF8DEA91E00E94930B16
:1022F000412F50E060E070E08EE894E02AE030E0AA
:102300000E94F1158FE991E00E94930B4091AF0379
:1023100050E060E070E08EE894E02AE030E00E9457
:1023200006168CEB93E06DE973E00E949E0488230F
:1023300029F48AE891E00E94A80BFFCF1092CF0306
:102340008CEB93E00E94E6011F9108950E942D12EC
:102350000E94E1100E94CC10FDCF1F920F920FB689
:102360000F9211242F933F938F939F93AF93BF931B
:102370008091050490910604A0910704B09108048F
:10238000309109040196A11DB11D232F2D5F2D371A
:1023900020F02D570196A11DB11D209309048093B3
:1023A000050490930604A0930704B0930804809159
:1023B000010490910204A0910304B09104040196D9
:1023C000A11DB11D8093010490930204A093030406
:1023D000B0930404BF91AF919F918F913F912F9142
:1023E0000F900FBE0F901F901895EF92FF920F93D2
:1023F0001F937B018C018FB7F89440910504509195
:10240000060460910704709108048FBF2FB7F894F9
:102410008091050490910604A0910704B0910804EE
:102420002FBF841B950BA60BB70BE816F9060A07FE
:102430001B0760F71F910F91FF90EF900895019790
:1024400059F0FC01EE0FFF1FEE0FFF1F32978FB701
:10245000F8943197F1F78FBF0895789484B582602E
:1024600084BD84B5816084BD85B5826085BD85B538
:10247000816085BDEEE6F0E0808181608083E1E8E7
:10248000F0E0808182608083808181608083E0E8E9
:10249000F0E0808181608083E1EBF0E08081846006
:1024A0008083E0EBF0E0808181608083EAE7F0E008
:1024B000808184608083808182608083808181606C
:1024C00080838081806880831092C10008958F701E
:1024D000909131019295990F990F907C982B909340
:1024E0007C0080917A00806480937A0080917A00E9
:1024F00086FDFCCF2091780040917900942F80E0F8
:1025000030E0282B392BC9010895282F30E0C9016C
:102510008C5B9D4FFC019491205D3D4FF9018491AE
:10252000882391F0E82FF0E0EE0FFF1FEE5EFD4FE5
:10253000A591B491662329F48C91909589238C936D
:1025400008958C91892B8C930895482F50E0CA01EF
:10255000885A9D4FFC012491CA018C5B9D4FFC0160
:102560009491405D5D4FFA0134913323D1F12223E0
:1025700031F1233021F4809180008F7705C0243021
:1025800031F4809180008F7D8093800018C02130CD
:1025900019F484B58F7704C0223021F484B58F7D7F
:1025A00084BD0DC0263021F48091B0008F7705C026
:1025B000273029F48091B0008F7D8093B000E32F05
:1025C000F0E0EE0FFF1FE45EFD4FA591B49166238E
:1025D00029F48C91909589238C9308958C91892B63
:1025E0008C9308951F920F920FB60F9211242F9380
:1025F0003F934F935F936F937F938F939F93AF938B
:10260000BF93EF93FF934091C600E0918A04F0914D
:102610008B04CF01019660E870E00E9430169C01A7
:1026200080918C0490918D042817390739F0E65F6A
:10263000FB4F408330938B0420938A04FF91EF91EA
:10264000BF91AF919F918F917F916F915F914F91CA
:102650003F912F910F900FBE0F901F9018955F9292
:102660006F927F928F929F92AF92BF92CF92DF92A2
:10267000EF92FF920F931F93CF93DF93EC013A01F8
:102680004B01413482E458078FE0680780E0780707
:102690000CF07FC060E874E88EE190E0A401930143
:1026A0000E9465162150304040405040CA01B90197
:1026B00022E030E040E050E00E94651659016A01D6
:1026C000A6019501209530954095509594E0220FF4
:1026D000331F441F551F9A95D1F760E074E284EFD1
:1026E00090E00E946516CA01B9012FEF30E040E08A
:1026F00050E00E941116A40193010E946516C901C1
:1027000081509F4F181619061CF4522E5A9403C07C
:1027100055245394521A60E079E08DE390E0A401CF
:1027200093010E9465162150304040405040CA013C
:10273000B90122E030E040E050E00E9465162095AB
:1027400030954095509583E0220F331F441F551F4D
:102750008A95D1F760E074E284EF90E00E946516FC
:10276000CA01B9012FEF30E040E050E00E9411169D
:10277000A40193010E946516C90181509F4F18164C
:1027800019061CF4822F815002C081E0821B85153E
:1027900000F5E885F98581E090E00A8802C0880F9D
:1027A000991F0A94E2F7808360E079E08DE390E07E
:1027B000A40193010E9465162150304040405040D2
:1027C000CA01B90122E030E040E050E00E94651605
:1027D00004C0E885F98510829501EC81FD81308384
:1027E000EE81FF812083EA85FB85208141E050E076
:1027F000CA010E8402C0880F991F0A94E2F7282BA1
:102800002083EA85FB852081CA010F8402C0880FDE
:10281000991F0A94E2F7282B2083EA85FB858081A3
:10282000088802C0440F551F0A94E2F7842B808366
:10283000DF91CF911F910F91FF90EF90DF90CF909C
:10284000BF90AF909F908F907F906F905F90089512
:10285000DC011296ED91FC911397E058FF4F8191A6
:10286000919180589F4F20813181821B930B60E8AA
:1028700070E00E9430160895CF93DF93DC0112962A
:10288000ED91FC911397EF01CE57DF4F48815981AD
:10289000E058FF4F80819181E058F0408417950700
:1028A00019F42FEF3FEF0CC0E40FF51F2081CA0190
:1028B000019660E870E00E9430169983888330E0CA
:1028C000C901DF91CF910895FC01A085B1852189CF
:1028D0008C9190E0022E02C0959587950A94E2F7BC
:1028E00080FFF6CF0484F585E02D6083089586E3AC
:1028F00091E090938F0480938E048AE094E090930B
:1029000091048093900485EC90E0909393048093DD
:10291000920484EC90E0909395048093940480EC6E
:1029200090E0909397048093960481EC90E09093CC
:1029300099048093980486EC90E090939B04809394
:102940009A0484E080939C0483E080939D0487E054
:1029500080939E0485E080939F0481E08093A0048F
:1029600008950F931F93CF93DF938C01EB0109C060
:102970002196D801ED91FC910190F081E02DC801E4
:10298000099568816623A1F7DF91CF911F910F917F
:102990000895EF92FF920F931F93CF93DF938C01D3
:1029A0007B01EA010CC0D7016D917D01D801ED9149
:1029B000FC910190F081E02DC801099521972097A5
:1029C00091F7DF91CF911F910F91FF90EF900895B4
:1029D000DC01ED91FC910190F081E02D09950895C5
:1029E000DC01ED91FC910280F381E02D09950895C1
:1029F0000F931F938C01DC01ED91FC910190F0810C
:102A0000E02D6DE00995D801ED91FC910190F081E8
:102A1000E02DC8016AE009951F910F9108950F9369
:102A20001F938C010E94F014C8010E94F8141F919A
:102A30000F9108952F923F924F925F926F927F92E3
:102A40008F929F92AF92BF92CF92DF92EF92FF92BE
:102A50000F931F93DF93CF93CDB7DEB7A0970FB639
:102A6000F894DEBF0FBECDBF1C016A017B0141158A
:102A700051056105710549F4DC01ED91FC9101906E
:102A8000F081E02D60E3099554C088249924540115
:102A9000422E55246624772401E010E00C0F1D1F00
:102AA000080D191DC701B601A30192010E9443162A
:102AB000F80160830894811C911CA11CB11CC70102
:102AC000B601A30192010E944316C901DA016C010B
:102AD0007D01C114D104E104F104F1F681E0E82E96
:102AE000F12CEC0EFD1EE80CF91C3E010894611C53
:102AF000711CD501C4010197A109B1096C01C81865
:102B0000D90814C0F601EE0DFF1D60816A3010F483
:102B1000605D01C0695CD101ED91FC910190F08193
:102B2000E02DC10109950894E108F1086E147F04B5
:102B300049F7A0960FB6F894DEBF0FBECDBFCF9178
:102B4000DF911F910F91FF90EF90DF90CF90BF909A
:102B5000AF909F908F907F906F905F904F903F903D
:102B60002F900895EF92FF920F931F93CF93DF93CF
:102B7000EC017A018B0177FF0FC0E881F9810190A8
:102B8000F081E02D6DE2099510950095F094E094A8
:102B9000E11CF11C011D111DCE01B801A7012AE0A5
:102BA0000E941A15DF91CF911F910F91FF90EF9026
:102BB0000895AB01662757FD6095762F0E94B215E8
:102BC00008950F931F938C01AB01662757FD609505
:102BD000762F0E94B215C8010E94F8141F910F9120
:102BE0000895DC012115310541F4ED91FC9101902E
:102BF000F081E02D642F099508952A30310519F4EC
:102C00000E94B21508950E941A1508950F931F93FC
:102C10008C010E94F115C8010E94F8141F910F91B8
:102C20000895629FD001739FF001829FE00DF11D16
:102C3000649FE00DF11D929FF00D839FF00D749F36
:102C4000F00D659FF00D9927729FB00DE11DF91FE2
:102C5000639FB00DE11DF91FBD01CF01112408953F
:102C600097FB092E07260AD077FD04D049D006D05D
:102C700000201AF4709561957F4F0895F6F79095AE
:102C800081959F4F0895A1E21A2EAA1BBB1BFD013F
:102C90000DC0AA1FBB1FEE1FFF1FA217B307E4073B
:102CA000F50720F0A21BB30BE40BF50B661F771F93
:102CB000881F991F1A9469F7609570958095909573
:102CC0009B01AC01BD01CF01089597FB092E05269C
:102CD0000ED057FD04D0D7DF0AD0001C38F4509531
:102CE0004095309521953F4F4F4F5F4F0895F6F730
:102CF00090958095709561957F4F8F4F9F4F089568
:102D0000AA1BBB1B51E107C0AA1FBB1FA617B70711
:102D100010F0A61BB70B881F991F5A95A9F780952D
:102D20009095BC01CD010895EE0FFF1F0590F49121
:102D3000E02D09949111089581568A5108F480522A
:082D400085580895F894FFCFB7
:102D48006461746100524946460057415645006621
:102D58006D7420004F4E004F4600525700525300EA
:102D68005254004953005341005053004C530049FA
:0C2D78000301000000006414B114C91431
:00000001FF
